:020000040800F2
:10000000000002206D480008FD420008FF42000881
:1000100001430008034300080543000800000000F6
:10002000000000000000000000000000074300087E
:1000300009430008000000000B4300080D430008BE
:10004000BD480008BD480008BD480008BD4800087C
:10005000BD480008BD480008BD480008BD4800086C
:10006000BD480008BD480008BD480008BD4800085C
:10007000BD480008BD480008BD480008BD4800084C
:10008000BD480008BD480008BD4800080000000049
:10009000000000000000000000000000BD48000853
:1000A000BD480008BD480008BD480008BD4800081C
:1000B000BD480008BD48000815430008BD480008B9
:1000C000BD480008BD480008BD480008BD480008FC
:1000D000BD480008BD480008BD48000800000000F9
:1000E000BD480008BD480008BD48000800000000E9
:1000F000000000000000000000000000BD480008F3
:1001000000000000BD480008BD480008BD480008C8
:1001100000000000000000000000000000000000DF
:10012000BD480008BD480008BD480008BD4800089B
:10013000BD480008000000000000000000000000B2
:10014000000000000000000000000000254300083F
:10015000BD480008BD480008BD480008BD4800086B
:10016000BD480008BD480008000000000000000075
:10017000000000000000000000000000000000007F
:1001800000000000BD480008000000000000000062
:08019000BD480008BD4800084D
:1001A00010B5054C237833B9044B13B10448AFF3B1
:1001B00000800123237010BDE80100200000000032
:1001C000A451000808B5034B1BB103490348AFF322
:1001D000008008BD00000000EC010020A4510008D0
:1001E00053B94AB9002908BF00281CBF4FF0FF319E
:1001F0004FF0FF3000F072B9ADF1080C6DE904CE9C
:1002000000F006F8DDF804E0DDE9022304B07047F1
:100210002DE9F047089E04468846002B4BD18A42C0
:10022000154667D9B2FA82F24AB1C2F1200701FA43
:1002300002F320FA07F7954047EA030894404FEA93
:10024000154E230CB8FBFEF71FFA85FC0EFB178832
:1002500043EA084307FB0CF1994209D9EB1807F16F
:10026000FF3080F01B81994240F21881023F2B44FD
:100270005B1AA4B2B3FBFEF00EFB103344EA034456
:1002800000FB0CFCA44509D92C1900F1FF3380F0C8
:100290000781A44540F2048102382C4440EA07401B
:1002A000A4EB0C0400271EB1D4400023C6E9004390
:1002B0003946BDE8F0878B4209D9002E00F0EB806B
:1002C0000027C6E9000138463946BDE8F087B3FA91
:1002D00083F7002F47D18B4202D3824200F2FA808B
:1002E000841A61EB030301209846002EE0D0C6E992
:1002F0000048DDE702B9FFDEB2FA82F2002A40F0E0
:100300008F80491B4FEA154E1FFA85F80127B1FB74
:10031000FEFC230C0EFB1C1143EA014308FB0CF10D
:10032000994207D9EB180CF1FF3002D2994200F242
:10033000CD808446591AA3B2B1FBFEF00EFB101417
:1003400043EA044408FB00F8A04507D92C1900F142
:10035000FF3302D2A04500F2B6801846A4EB080491
:1003600040EA0C409FE7C7F1200CBB4022FA0CFE8C
:100370004EEA030E01FA07F420FA0CF521FA0CF309
:100380004FEA1E482543B3FBF8F92C0C08FB193340
:100390001FFA8EFA44EA034309FB0AF49C4202FA6C
:1003A00007F200FA07F10BD91EEB030309F1FF3046
:1003B00080F087809C4240F28480A9F10209734456
:1003C0001B1BADB2B3FBF8F008FB103345EA034446
:1003D00000FB0AFAA24508D91EEB040400F1FF3322
:1003E0006BD2A24569D90238744440EA0940A0FBA7
:1003F0000289A4EB0A044C45C2464B4654D351D063
:10040000002E69D0B1EB0A0564EB030404FA0CFC7E
:10041000FD40FC404CEA0505C6E90054002747E7CB
:10042000C2F1200320FA03F7954001FA02F021FA05
:1004300003F34FEA154E3843010CB3FBFEF71FFAE6
:1004400085F80EFB173341EA034107FB08F38B42A3
:1004500004FA02F407D9691807F1FF3C2FD28B4246
:100460002DD9023F2944CB1A81B2B3FBFEF00EFB1B
:10047000103341EA034100FB08F38B4207D96918A6
:1004800000F1FF3C17D28B4215D902382944C91A12
:1004900040EA07473BE73746304609E70746E7E6C5
:1004A0001846FBE64145ABD2B8EB020A69EB0E02F7
:1004B00001381346A4E76046E9E7184695E7674622
:1004C000D1E781467CE702382C4447E7ACF1020CC7
:1004D0002B442FE7384608E73746E9E6704700BF68
:1004E000034613F8012B002AFBD1181A0138704774
:1004F00001F0FF01102A2BDB10F0070F08D010F8D5
:10050000013B013A8B422DD010F0070F42B3F6D1D8
:10051000F0B441EA012141EA014122F007047FF0F1
:1005200000070023F0E80256083C85EA010586EA48
:10053000010685FA47F5A3FA87F586FA47F6A5FA84
:1005400087F68EB9EED1F0BC01F0FF0102F0070290
:1005500032B110F8013B013A83EA010313B1F8D13B
:100560000020704701387047002D06BF354603381C
:10057000073815F0010F07D1013015F4807F02BF55
:10058000013015F4C03F0130F0BC0138704700BFA6
:1005900010B504460E4B18784FF47A73B3FBF0F3A2
:1005A0000C4A1068B0FBF3F000F0AAF868B90F2C01
:1005B00001D901200AE0002221464FF0FF3000F06F
:1005C0005DF8034B5C60002000E0012010BD00BF1F
:1005D000000000202001002008B50B4B1A6842F4EF
:1005E00000721A601A6842F480621A601A6842F453
:1005F00080721A60032000F02FF80020FFF7C8FF78
:1006000003F008FE002008BD003C0240034A1168C8
:10061000034B1B780B441360704700BF340200206B
:1006200000000020014B1868704700BF3402002012
:1006300038B50446FFF7F6FF0546B4F1FF3F02D098
:10064000044B1B781C44FFF7EDFF401BA042FAD37C
:1006500038BD00BF00000020074AD36823F4E063E0
:100660001B041B0C000200F4E060184340F0BF6064
:1006700040F40030D060704700ED00E030B4174B1C
:10068000DB68C3F30223C3F10704042C28BF04244E
:100690001D1D062D18D9033B4FF0FF3505FA04F454
:1006A00021EA0401994005FA03F322EA03031943FE
:1006B00000280BDB0901C9B200F1604000F5614080
:1006C00080F8001330BC70470023E5E700F00F000E
:1006D0000901C9B2024B1954F4E700BF00ED00E074
:1006E00014ED00E0002807DB00F01F0240090123A1
:1006F0009340024A42F82030704700BF00E100E01A
:100700000138B0F1807F0AD2064B5860064AF021CA
:1007100082F823100020986007221A607047012099
:10072000704700BF10E000E000ED00E000230F2B59
:1007300000F2C580F0B482B039E0042200E000226B
:10074000B2403A4302345E4E46F824205D4A1468B3
:10075000EA4302EA04064F6817F4803F01D045EAF5
:100760000406584C2660646802EA04064F6817F4D1
:10077000003F01D045EA0406524C6660A46802EAD4
:1007800004064F6817F4801F01D045EA04064D4C5B
:10079000A660E46822404E6816F4001F01D045EAC6
:1007A0000402484CE26001330F2B00F285800122E5
:1007B0009A400C6804EA0205AA42F4D14C68022C63
:1007C00001D0122C10D1DE08083650F826C003F0F4
:1007D0000704A7000F24BC402CEA040C0C69BC40A1
:1007E00044EA0C0440F8264004685F000326BE403B
:1007F000F64306EA040C4C6804F00304BC4044EAE7
:100800000C0404604C6804F1FF3CBCF1010F03D9F7
:10081000112C01D0122C10D1846806EA040CCC688B
:10082000BC4044EA0C048460446824EA02024C6838
:10083000C4F300149C4014434460C26816408A68A4
:10084000BA403243C2604A6812F0805FABD00022E7
:1008500001921D4A546C44F480445464526C02F476
:1008600080420192019A9C08A61C154A52F82670F3
:1008700003F0030296000F22B24027EA0207134A50
:1008800090423FF45CAF02F5806290420ED002F5D8
:10089000806290420CD002F5806290420AD002F54C
:1008A000806290423FF449AF072249E7012247E7BF
:1008B000022245E7032243E702B0F0BC70477047CD
:1008C00000380140003C0140003802400000024076
:1008D0000369194201D1002070470120704712B905
:1008E000090481617047816170472DE9F04782B04A
:1008F0000768CA00521A930003445A6D1B6D9A424E
:1009000057D8B8469B1AC1EBC104A2000244526CEE
:100910009A4200D31A460C46064602F1030A4FEAF1
:100920009A0A16E009F1030A4FEA9A0AE3001B1B30
:100930009D003544A96C337C00931FFA89F3E2B221
:10094000384601F0F9FEAB6C4B44AB646B6D4B4425
:100950006B6508EB441303F510639B699BB2534529
:1009600013D3E3001B1B9A003244516D136D99425F
:100970000BD253B15B1AC4EBC4018A003244D2F8E3
:1009800044909945CED39946CCE7E3001B1B9800D1
:100990000644326D736D9A420FD804F00F040121A2
:1009A000A140D7F8344824EA0104C7F834480020AD
:1009B00000E0012002B0BDE8F0870020FAE7F0B5C2
:1009C0008BB0002800F08380044690F8BD33F3B16B
:1009D000032384F8BD33206801F068FC254655F8F0
:1009E000107B6E460FCD0FC60FCD0FC695E80300E6
:1009F00086E80300231D0ECB384601F095FB58B165
:100A0000022384F8BD33012528460BB0F0BD80F8E1
:100A1000BC3303F051FDDBE70021206801F04CFC02
:100A2000002315E0D900C81A82002244012082F870
:100A30003D0082F83C30A2F84230002082F83F00AE
:100A400050649064CA1A9100214408650133DBB2F6
:100A50006568AB42E6D3002315E0D800C11A8A00CE
:100A60002244002182F8FD1182F8FC3182F8FF1146
:100A7000C2F80412C2F80812C21A90002044C0F84A
:100A800010120133DBB29D42E7D8254655F8107BA2
:100A90006E460FCD0FC60FCD0FC695E8030086E852
:100AA0000300231D0ECB384601F04CFC054620B157
:100AB000022384F8BD330125A6E7002384F83830EB
:100AC000012384F8BD33206801F0CBFF9CE70125AA
:100AD0009AE7026890F8BC33012B19D010B50123B6
:100AE00080F8BC33836A012B0AD00446006801F009
:100AF000ACFF206801F0D4FB002084F8BC0310BDDB
:100B00008369012BF1D0936B43F480339363ECE75B
:100B10000220704770B505460E460368196C03EB5A
:100B2000461303F53064A3680269012A0FD0354AE1
:100B3000914261D113F4004F5AD113F0200F01D02C
:100B40002023A360F1B2284603F0FCFC57E013F029
:100B5000080F14D02C4A914205D913F4004F02D04B
:100B60004FF40043A360284603F0E4FC05F57172DE
:100B70000121286801F0D2FF0823A3603FE013F0B1
:100B8000200F2ED113F0280F39D11F4A914202D9DC
:100B900013F4004F28D1F200921B93002B44D3F89A
:100BA00004222169C1F31201521AC3F81422D3F8A6
:100BB0000412D3F808220A44C3F80822F1B22846E6
:100BC00003F0C0FCDEB9C6EBC606B3002B44D3F875
:100BD0001032A3B905F571720121286801F09EFF5A
:100BE0000DE02023A3600AE04FF40043A36006E079
:100BF0004FF40043A36002E0F1B203F0A3FC002035
:100C000070BD00BF0A31544F0A30544F38B5044606
:100C100003681D6C03EB411101F530618A680369BB
:100C2000012B0DD0124B9D4214D0204603F082FCC4
:100C3000104B9D4202D92369012B12D0002038BDF0
:100C40000C4B9D42F1D912F4004FEED04FF400430B
:100C50008B60EAE712F4004FE7D04FF400438B605B
:100C6000E3E704F571720121206801F057FFE5E721
:100C70000A31544F0A30544F2DE9F84F04460568A5
:100C8000284601F02BFF08B1BDE8F88FA8460646BC
:100C9000206801F0F2FE0028F6D0206801F0EDFE99
:100CA00010F0020F04D02268536903F0020353616D
:100CB000206801F0E2FE10F4002F75D1374620685D
:100CC00001F0DBFE10F4802F40F0C080206801F0BE
:100CD000D4FE0028C0F22E81206801F0CEFE10F470
:100CE000006F0AD0D5F8083813F0010F40F03C81AE
:100CF0002268536903F400635361206801F0BDFE6C
:100D000010F4805F40F03481206801F0B6FE10F4EA
:100D1000005F40F08781206801F0AFFE10F0100FF7
:100D200014D02268936923F0100393612E6A06F0B1
:100D30000F08C6F34343022B00F09181062B00F00D
:100D4000AF812268936943F010039361206801F03A
:100D500094FE10F0080F40F0B781206801F08DFE7E
:100D600010F4801F40F0B981206801F086FE10F475
:100D7000001F40F0BC81206801F07FFE10F0804F22
:100D800040F0BF81206801F078FE10F0040F3FF4BE
:100D90007BAF23685D6815F0040F40F0BB812268CB
:100DA00053682B4353606FE7206801F06AFE814669
:100DB000374624E008EB47130122C3F8082B3946D5
:100DC0002046FFF7A7FE29E039462046FFF71EFF21
:100DD00008EB47130822C3F8082B22E008EB47135F
:100DE0002022C3F8082B1AF4005F05D008EB471344
:100DF0004FF40052C3F8082B01374FEA5909B9F1F3
:100E0000000F3FF45CAF19F0010FF5D0F9B2206884
:100E100001F047FE824610F0010FCBD11AF0080F07
:100E2000D2D11AF0100F04D008EB47131022C3F8E8
:100E3000082B1AF0200FD6D02369012BCED104F550
:100E400071720121206801F069FEC7E7206801F096
:100E500020FE814637462EE0FA00D21B9300234441
:100E6000596C9A6C0A449A6448E01AF0080F04D04E
:100E700008EB47130822C3F808291AF0100F04D012
:100E800008EB47131022C3F808291AF0400F04D0CA
:100E900008EB47134022C3F808291AF0020F04D0C8
:100EA00008EB47130222C3F808291AF0800F3CD13F
:100EB00001374FEA5909B9F1000F3FF407AF19F0B4
:100EC000010FF5D05FFA87FB5946206801F0F2FD6B
:100ED000824610F0010FC8D007F00F03012101FA7C
:100EE00003F2D8F8343823EA0203C8F8343808EBA0
:100EF0004713C3F8081923698B42ADD059462046E1
:100F000003F02CFB2369012BAFD1002FADD1C7EB30
:100F1000C702930023441B6D002BA6D104F5717208
:100F20000121206801F0FAFD9FE739462046FFF7CE
:100F3000DCFCBDE7D5F8043823F00103C5F804381C
:100F400094F8F433012B08D0204603F041FB2268CB
:100F5000536903F000435361BEE6002184F8F413A3
:100F6000204600F068FAF2E7204603F019FBBFE6DE
:100F700005F50069D9F8043023F00103C9F80430FD
:100F80001021206801F0B0F914E008EB46134FF689
:100F90007F31C3F80819D3F8002922F40012C3F8EE
:100FA0000029C3F8081BD3F8002B22F40012C3F861
:100FB000002B01366368B342E7D8D9F81C3043F000
:100FC0000113C9F81C30236BEBB1D9F8843043F01E
:100FD0000B03C9F88430D9F8443043F00B03C9F847
:100FE0004430D5F8003823F4FE63C5F8003804F522
:100FF0007172217C206801F091FD2268536903F42D
:101000008053536180E6D9F8143043F4005343F021
:101010002B03C9F81430D9F8103043F00B03C9F88A
:101020001030DEE7206801F05DFD206801F05AFA1B
:1010300090B90023E360266800F0E2FC227B0146C1
:10104000304601F0B7F8204603F099FA2268536958
:1010500003F4005353615EE60323E360EBE747F6D6
:10106000F0731E423FF46DAE4FEAC80AAAEB0803C4
:101070004FEA8309A1443609C6F30A02D9F80812D7
:10108000284601F063FCC6F30A06D9F80832334457
:10109000C9F80832D9F814321E44C9F8146250E66F
:1010A000082204F57171284601F050FCC6F30A16B7
:1010B0004FEAC803A3EB08018A002244D2F8143295
:1010C0001E44C2F814623CE6204603F052FA22683D
:1010D000536903F0080353613FE6F9B2204603F079
:1010E00083FA2268536903F4801353613CE6F9B232
:1010F000204603F073FA2268536903F40013536126
:1011000039E6204603F076FA2268536903F08043FB
:10111000536137E6204603F073FA40E690F8BC339B
:10112000012B0DD010B50446012380F8BC3380F8A4
:101130003810006801F079FC002084F8BC0310BD71
:1011400002207047F8B511F0800F28D101F00F068A
:10115000F500AF1BBC00274604F5FC7404440434BE
:101160003E460644002586F8FD5101F00F0121702E
:10117000A260E370627802B1E180022B1ED090F889
:10118000BC33012B1DD00546012380F8BC3321461A
:10119000006801F0B8F9002085F8BC03F8BD01F043
:1011A0000F06F500AF1BBC00274638340444043456
:1011B0003E460644012586F83D50D6E700232371BC
:1011C000DDE70220EAE738B511F0800F21D101F008
:1011D0000F05EA00541BA3001C4603F5FC730344EF
:1011E000043325460544002285F8FD2101F00F0156
:1011F000197090F8BC23012A1AD00446012280F805
:10120000BC231946006801F0C9F9002084F8BC032A
:1012100038BD01F00F04E200151BAB001D4638334A
:10122000034404332C460444012284F83D20DDE7C6
:101230000220EDE770B501F00F05EE00711B8C0088
:1012400004F5FC740444211D761BB4000444C4F866
:101250000822C4F810320023C4F8143284F8FD3197
:1012600084F8FC510369012B06D065B1DAB200683D
:1012700001F076FA002070BDC5EBC506B400044449
:10128000C4F80C22F1E7DAB2006801F0CFF9F1E717
:1012900001F00F01C1EBC1018B001844D0F814021A
:1012A000704770B501F00F05EE00711B8C003834EB
:1012B0000444211D761BB4000444A264236500236A
:1012C0006365012384F83D3084F83C500369012BA9
:1012D00006D05DB1DAB2006801F042FA002070BDBC
:1012E000C5EBC506B4000444E264F2E7DAB2006874
:1012F00001F09CF9F2E738B501F00F0543689D4213
:1013000036D811F0800F20D1CA00541AA3001C4611
:1013100003F5FC730344043322460244002182F89F
:10132000FD1101229A701D7090F8BC23012A21D072
:101330000446012280F8BC231946006801F01AFB1C
:101340007DB1002084F8BC0313E0EA00511B8B0040
:1013500019463833034404330144012281F83D2007
:10136000DFE704F57172217C206801F0D7FBE8E724
:10137000012038BD0220FCE710B501F00F044368DE
:101380009C422CD811F0800F1DD1E3001A1B910054
:101390000A4601F5FC71014404310244002382F83D
:1013A000FD3100238B700C7090F8BC33012B18D0EA
:1013B0000446012380F8BC33006801F008FB0020DC
:1013C00084F8BC030CE0E3001A1B91000A46383194
:1013D000014404310244012382F83D30E1E7012059
:1013E00010BD0220FCE730B40468606A29B10D46E4
:1013F000A36A00EB134000230CE040EA0240A06225
:1014000012E003F1400104EB8101496800EB114057
:101410000133DBB2691E8B42F3D340EA024005F18F
:101420003F0104EB81014860002030BC7047036835
:101430005962002070477047002800F0BB8170B5EA
:1014400082B00446036813F0010F3BD0A74B9B68A2
:1014500003F00C03042B2CD0A44B9B6803F00C036B
:10146000082B21D06368B3F5803F4FD0B3F5A02F90
:1014700052D09E4B1A6822F480321A601A6822F405
:1014800080221A606368002B50D0FFF7CBF8054626
:10149000964B1B6813F4003F14D1FFF7C3F8401BB1
:1014A0006428F5D903208AE1904B5B6813F4800F20
:1014B000D8D08E4B1B6813F4003F03D06368002B19
:1014C00000F07A81236813F0020F55D0874B9B6898
:1014D00013F00C0F3ED0854B9B6803F00C03082BD8
:1014E00033D0E368002B68D0814B01221A60FFF7EC
:1014F00099F805467D4B1B6813F0020F54D1FFF796
:1015000091F8401B0228F5D9032058E1774A136867
:1015100043F480331360B5E7744B1A6842F48022B9
:101520001A601A6842F480321A60ABE7FFF77AF863
:1015300005466E4B1B6813F4003FC3D0FFF772F8EB
:10154000401B6428F5D9032039E1684B5B6813F42C
:10155000800FC6D1654B1B6813F0020F04D0E368FF
:10156000012B01D001202AE1604A136823F0F8031F
:10157000216943EAC1031360236813F0080F40D0C8
:10158000636963B35B4B01221A60FFF74BF80546B2
:10159000564B5B6F13F0020F33D1FFF743F8401B3C
:1015A0000228F5D903200AE1504A136823F0F80312
:1015B000216943EAC1031360DEE74D4B00221A6044
:1015C000FFF730F80546494B1B6813F0020FD3D0E4
:1015D000FFF728F8401B0228F5D90320EFE0454B20
:1015E00000221A60FFF71EF80546404B5B6F13F0B0
:1015F000020F06D0FFF716F8401B0228F5D903208A
:10160000DDE0236813F0040F79D0384B1B6C13F026
:10161000805F33D100230193344B1A6C42F0805227
:101620001A641B6C03F080530193019B0125324B1C
:101630001B6813F4807F23D0A368012B34D0052BC3
:1016400038D02A4B1A6F22F001021A671A6F22F063
:1016500004021A67A368002B36D0FEF7E3FF0646A4
:10166000224B1B6F13F0020F48D1FEF7DBFF801BEC
:1016700041F288339842F3D90320A0E00025D6E751
:101680001D4A136843F480731360FEF7CBFF0646D0
:10169000194B1B6813F4807FCED1FEF7C3FF801B6C
:1016A0000228F5D903208AE0104A136F43F00103A2
:1016B0001367CFE70D4B1A6F42F004021A671A6FD7
:1016C00042F001021A67C5E7FEF7ACFF0646074B7A
:1016D0001B6F13F0020F11D0FEF7A4FF801B41F225
:1016E00088339842F3D9032069E000BF00380240F4
:1016F00000004742800E474200700040E5B9A369F0
:10170000002B5BD0304A926802F00C02082A58D0B5
:10171000022B17D02D4B00221A60FEF783FF0446E0
:10172000294B1B6813F0007F42D0FEF77BFF001BA4
:101730000228F5D9032042E0234A136C23F080539A
:101740001364DCE7214B00221A60FEF76BFF0546AD
:101750001D4B1B6813F0007F06D0FEF763FF401B94
:101760000228F5D903202AE0E369226A1343626A5A
:1017700043EA8213A26A5208013A43EA0243E26A48
:1017800043EA0263104A5360104B01221A60FEF7CD
:1017900049FF04460C4B1B6813F0007F06D1FEF78F
:1017A00041FF001B0228F5D9032008E0002006E0D5
:1017B000002004E001207047012000E0002002B07A
:1017C00070BD0120FBE700BF0038024060004742C7
:1017D000324B9B6803F00C03042B5CD0082B01D028
:1017E0002F4870472DE9F04B2C4B5A6802F03F020E
:1017F0005B6813F4800F2BD0284B5B68C3F388130E
:101800001E4600275C010025E41A65EB0705A901C7
:1018100041EA9461A001001B61EB0501CB0043EAA2
:101820005073C400A01943EB07014B0243EAD053A5
:101830004402204619460023FEF7D2FC174B5B6892
:10184000C3F3014301335B00B0FBF3F0BDE8F08B61
:10185000124B5B68C3F388131E4600275C0100250A
:10186000E41A65EB0705A90141EA9461A001001B98
:1018700061EB0501CB0043EA5073C400A01943EBB0
:1018800007018B0243EA9053840220461946002345
:10189000FEF7A6FCD2E70348704700BF00380240BD
:1018A0000024F40000127A00002800F09D8070B53A
:1018B00004464F4B1B6803F00F038B4209D2CBB297
:1018C0004B4A1370136803F00F038B4201D00120C1
:1018D00070BD236813F0020F17D013F0040F04D06B
:1018E000444A936843F4E0539360236813F0080F6D
:1018F00004D0404A936843F4604393603D4A936840
:1019000023F0F003A068034393600D46236813F0AF
:10191000010F32D06368012B21D09A1E012A25D9EC
:10192000344A126812F0020F60D032498A6822F0FD
:10193000030213438B60FEF775FE06462D4B9B6832
:1019400003F00C036268B3EB820F16D0FEF76AFE59
:10195000801B41F288339842F0D90320B8E7254A2A
:10196000126812F4003FE0D10120B1E7214A126869
:1019700012F0007FD9D10120AAE71D4B1B6803F0AC
:101980000F03AB4209D9EAB2194B1A701B6803F076
:101990000F03AB4201D001209AE7236813F0040F34
:1019A00006D0144A936823F4E053E1680B43936034
:1019B000236813F0080F07D00E4A936823F460439E
:1019C000216943EAC1039360FFF702FF094B9B685B
:1019D000C3F30313084AD35CD840084B18600020B7
:1019E000FEF7D6FD002073E70120704701206FE766
:1019F000003C024000380240F4550008200100205D
:101A0000014B1868704700BF20010020F8B505465B
:101A10000F4616461C462B689B6837EA03030CBF2B
:101A200001230023B34237D0B4F1FF3FF3D0FEF7D8
:101A3000F9FD069BC01AA04201D2002CEBD12A6806
:101A4000536823F0E00353606B68B3F5827F0BD0DB
:101A5000AB6AB3F5005F14D0012385F85130002341
:101A600085F85030032018E0AB68B3F5004F02D082
:101A7000B3F5806FECD12A68136823F0400313603C
:101A8000E6E72A68136823F4005313602A68136892
:101A900043F400531360DFE70020F8BD10B582B0B7
:101AA000044600920B4600228021FFF7AFFF034659
:101AB00010B9184602B010BD636D43F02003636592
:101AC0000323F6E700283BD010B5044600238362C9
:101AD00090F85130002B2ED0022384F85130226828
:101AE000136823F0400313606368A2681343E2683D
:101AF00013432269134362691343A26902F400721B
:101B00001343E2691343226A1343A16A22680B4319
:101B10001360638B03F00403616A22680B43536014
:101B20002268D36923F40063D36100206065012338
:101B300084F8513010BD80F8503002F087FBCBE7BD
:101B4000012070472DE9F04182B090F85040012CFF
:101B500000F0C3801D46174688460446012380F8DE
:101B60005030FEF75FFD064694F85130DBB2012B92
:101B700009D00220012384F85130002384F850302A
:101B800002B0BDE8F081B8F1000F00F09880002F9E
:101B900000F09780032384F8513000236365C4F874
:101BA0003080A786E786A363A387E3876364236403
:101BB000A368B3F5004F1CD023681A6812F0400FD9
:101BC00003D11A6842F040021A60E368B3F5006F6F
:101BD00015D063680BB1012F49D1226B23681278AD
:101BE0001A73236B01332363E38E013B9BB2E386BD
:101BF0003DE02268136843F480431360DCE76368C8
:101C00000BB1012F15D1226B23681288DA60236B88
:101C100002332363E38E013B9BB2E38609E0FEF7C8
:101C200001FD801BA84202D3B5F1FF3F4BD1002D2F
:101C30004BD0E38E9BB2002B2CD023689A6812F015
:101C4000020FECD0226B1288DA60236B023323631D
:101C5000E38E013B9BB2E386EBE7FEF7E3FC801BE0
:101C6000A84202D3B5F1FF3F31D1002D31D0E38E30
:101C70009BB27BB123689A6812F0020FEDD0226B01
:101C800012781A73236B01332363E38E013B9BB2FB
:101C9000E386ECE7324629462046FFF7FFFE08B10F
:101CA00020236365A36833B901932368DA6801923E
:101CB0009B680193019B636D6BB900205AE701207B
:101CC00058E7012056E7032054E7032052E703209A
:101CD00050E703204EE701204CE7022050E710B404
:101CE000036A046A24F001040462846924F0F004A5
:101CF00044EA021223F00A030B43826103625DF897
:101D0000044B704710B4036A23F010030362846924
:101D1000036A24F4704444EA023223F0A00343EA45
:101D20000113826103625DF8044B7047836823F0FE
:101D30007003194341F00701816070470268D3685E
:101D400043F00103D3600268936803F00703062B96
:101D500003D0136843F001031360002070477047FD
:101D600070477047704710B5044603681A6912F04F
:101D7000020F11D0DA6812F0020F0DD06FF00202DC
:101D80001A610123037703689B6913F0030F70D076
:101D9000FFF7E6FF0023237723681A6912F0040F88
:101DA00012D0DA6812F0040F0ED06FF004021A613C
:101DB0000223237723689B6913F4407F5FD020467A
:101DC000FFF7CEFF0023237723681A6912F0080F6C
:101DD00012D0DA6812F0080F0ED06FF008021A6104
:101DE000042323772368DB6913F0030F4ED02046CA
:101DF000FFF7B6FF0023237723681A6912F0100F4C
:101E000012D0DA6812F0100F0ED06FF010021A61C3
:101E1000082323772368DB6913F4407F3DD02046F5
:101E2000FFF79EFF0023237723681A6912F0010F42
:101E300003D0DA6812F0010F36D123681A6912F064
:101E4000800F03D0DA6812F0800F34D123681A694A
:101E500012F0400F03D0DA6812F0400F32D123683D
:101E60001A6912F0200F03D0DA6812F0200F30D177
:101E700010BDFFF774FF2046FFF773FF8AE7204687
:101E8000FFF76DFF2046FFF76CFF9BE72046FFF74B
:101E900066FF2046FFF765FFACE72046FFF75FFFD0
:101EA0002046FFF75EFFBDE76FF001021A61204692
:101EB00001F098FFC1E76FF080021A61204600F040
:101EC00013F9C3E76FF040021A612046FFF74AFF9B
:101ED000C5E76FF020021A61204600F004F9C7E759
:101EE0000368254A90420ED0B0F1804F0BD0A2F586
:101EF0007C42904207D002F58062904203D002F506
:101F00008062904203D123F070034A6813431A4A57
:101F100090421AD0B0F1804F17D0A2F57C42904287
:101F200013D002F5806290420FD002F58062904299
:101F30000BD002F59A32904207D002F580629042AF
:101F400003D002F58062904203D123F44073CA6843
:101F5000134323F080034A69134303608B68C36211
:101F60000B688362044B984202D00123436170479F
:101F70000B690363F9E700BF00000140A8B110B589
:101F8000044690F83D305BB1022384F83D30211DBA
:101F90002068FFF7A5FF012384F83D30002010BD25
:101FA00080F83C3002F08AF9EEE70120704710B467
:101FB000846824F47F4442EA03230B432343836071
:101FC0005DF8044B704790F83C30012B66D010B59B
:101FD0000446012380F83C30022380F83D3002683B
:101FE000936823F47F4323F0770393600B68402BBF
:101FF0004AD013D9602B3DD01ED9702B28D0B3F511
:10200000005F30D1CB684A6889680068FFF7CFFF6E
:102010002268936843F48043936024E0102B06D039
:1020200004D9202B03D0302B01D01CE0DBB919469A
:102030002068FFF77BFE16E0502B14D1CA68496870
:102040000068FFF74CFE50212068FFF76FFE0AE0A2
:10205000CB684A6889680068FFF7A9FF226893681F
:1020600043F077039360012384F83D30002084F827
:102070003C0010BDCA6849680068FFF743FE602154
:102080002068FFF753FEEEE7CA6849680068FFF76B
:1020900026FE40212068FFF749FEE4E70220704752
:1020A00090F83C30012B1CD070B4012680F83C60C5
:1020B000022380F83D3002685568936825F070056A
:1020C0000C682C4323F080054B682B435460026856
:1020D000936080F83D60002380F83C30184670BC67
:1020E000704702207047704770470000002301339B
:1020F0000C4A934211D80269002AF8DA036943F0C6
:102100000103036100230133064A934207D80269A1
:1021100012F0010FF7D10020704703207047032011
:10212000704700BF400D030084B010B5044603A8FB
:1021300080E80E00089B012B1FD1A36B23F4803392
:10214000A363E36823F4840323F04003E360E368BC
:1021500023F44013E3600F9B012B09D02046FFF7C7
:10216000C5FF069B012B1BD0BDE8104004B0704793
:10217000E36843F48013E360F0E7E36843F040036F
:10218000E3602046FFF7B2FF0C9B23B9A36B43F437
:102190008033A363E5E7A36B23F48033A363E0E715
:1021A000A36843F00603A360A36843F02003A36081
:1021B000DAE70000032A0AD00921C26822F470522B
:1021C000C260C36843EA8123C360002070472A4B82
:1021D0000B442A4A93423FD9294B0B44294A934244
:1021E0003CD9A1F57403A3F51053274A934237D97C
:1021F000A1F18373A3F5E74302F5C332A032934202
:1022000030D9224B0B44224A93422DD9214B0B4407
:1022100002F5922202F57872934227D91E4B0B44A5
:1022200002F5C32202F52072934221D9A1F1B773BE
:10223000A3F5585302F5B71202F55872934219D913
:10224000164B0B4402F5122202F5F862934201D9B3
:102250000621B2E70721B0E70F21AEE70E21ACE778
:102260000D21AAE70C21A8E70B21A6E70A21A4E784
:102270000921A2E70821A0E7405327FFFF340C0003
:10228000401E1BFF3F420F007F4F120060B6E5FE6D
:102290005FE3160000D3CEFEC05BB3FEE05459FEF0
:1022A000836843F00103836000207047836823F054
:1022B000010383600020704708B5C36823F0C04362
:1022C000C360012909D069B9C36843F08043C36082
:1022D0003220FEF7ADF9002008BDC36843F000537B
:1022E000C360F5E70120F7E7890141F020010161B2
:1022F00000230133054A934205D8026912F0200FEA
:10230000F7D1002070470320704700BF400D030045
:102310001023036100230133054A934205D8026963
:1023200012F0100FF7D1002070470320704700BF54
:10233000400D0300D0F800381943C0F80018002001
:102340007047000084B02DE9F041044607A880E8FA
:102350000E002546002306E003F1400204EB820252
:102360000021516001330E2BF6D9119BF3B9A36BF9
:1023700043F40013A363A36B23F40023A363A36BB1
:1023800023F48023A3630023C4F8003E04F5006611
:10239000D4F80038C4F800380C9B012B14D1099BE9
:1023A0006BB900212046FFF7C5FF11E0236823F435
:1023B00000132360A36B43F40023A363E3E701212D
:1023C0002046FFF7B7FF03E003212046FFF7B2FFE7
:1023D00010212046FFF788FF804608B14FF0010822
:1023E0002046FFF795FF08B14FF001080023336145
:1023F0007361F3610AE0C3B94FF00060C2F80009ED
:1024000000220A614FF67F328A60013307999942B0
:1024100010D905EB431202F51061D2F8000900282B
:10242000E9DB0020C2F80009EAE74FF09040C2F86B
:102430000009E5E700230AE0BBB14FF09047C2F87E
:10244000007B002202614FF67F32826001339942A5
:1024500010D905EB431202F53060D2F8007B002F53
:10246000EADB0027C2F8007BEBE74FF00067C2F819
:10247000007BE6E7336923F4807333610A9B012B09
:102480001BD00022A2616FF0804262611BB9A36978
:1024900043F01003A361A269104B1343A3610D9B8A
:1024A0001BB1A36943F00803A361119B012B0DD05D
:1024B0004046BDE8F04104B07047094A3263326BD0
:1024C00042F4803242F003023263DAE7A36943F058
:1024D000804343F00403A361EAE700BF00383C8077
:1024E00000018000D0F8083813F0060307D0022B53
:1024F00007D0062B01D00020704703207047002032
:1025000070470320704770B40B784A78012A22D0B4
:10251000D0F81C2803F00F060124B44042EA04421C
:10252000C0F81C2800EB4310D0F8003B13F4004F18
:102530000ED1D0F8003B8A68C2F30A02C97842EA99
:102540008142134343F0805343F40043C0F8003BFF
:10255000002070BC7047D0F81C4803F00F06B24052
:1025600092B22243C0F81C2800EB4310D0F8002997
:1025700012F4004FECD1D0F800298C68C4F30A049F
:10258000C97844EA814444EA8353134343F08053B7
:1025900043F40043C0F80039DAE7000070B40B7868
:1025A0004A78012A1FD0D0F83C5803F00F060124C6
:1025B00004FA06F625EA0645C0F83C58D0F81C583F
:1025C000097801F00F018C4025EA0444C0F81C484A
:1025D00000EB4310D0F8002B124B1340C0F8003B27
:1025E000002070BC7047D0F83C6803F00F0402FA7A
:1025F00004F4A4B226EA0404C0F83C48D0F81C480D
:10260000097801F00F018A4092B224EA0202C0F870
:102610001C2800EB4310D0F80039034A1A40C0F8D8
:102620000029DDE70078F3EF007833EC70B40B7825
:102630004C78012C26D000EB431000F530631C6968
:10264000E40CE4041C611C6924F0FF5424F4C0145D
:102650001C614C690CB18C684C611C6944F4002409
:102660001C611C698D68C5F312052C431C61012A8D
:102670005DD0D0F8003B43F00443C0F8003B00209D
:1026800070BC70474C6964BB00EB4314D4F810591C
:1026900025F0FF5525F4C015C4F81059D4F8105989
:1026A00045F40025C4F81059D4F81059ED0CED0488
:1026B000C4F81059012A32D04A694AB1D0F83428F6
:1026C000097801F00F040121A1400A43C0F8342821
:1026D00000EB4310D0F8002942F00442C0F8002972
:1026E000CDE700EB431404F510642569ED0CED040F
:1026F0002561256925F0FF5525F4C01525614E6932
:102700008D68AE4200D94D61256945F400252561EB
:1027100025694E69C6F3120635432561CAE70A6981
:10272000002AD5D000EB4311C1F81429D0E7CA68BC
:10273000002A9ED05A619CE770B49DF80C4064B9A1
:1027400003339D0807E000EB023303F5805351F893
:10275000046B1E600134AC42F5D3002070BC70479E
:10276000F0B583B00B784C78012C2BD000EB4313E1
:1027700003F530642569ED0CED042561256925F02C
:10278000FF5525F4C01525614D69002D40F0AE8040
:1027900025698E68C6F3120635432561256945F41F
:1027A00000252561012A00F0B680CA78012A00F0D0
:1027B000B880D3F8002B42F00442C3F8002B00206D
:1027C00003B0F0BD4C69002C3DD100EB4314D4F8AC
:1027D000105925F0FF5525F4C015C4F81059D4F848
:1027E000105945F40025C4F81059D4F81059ED0CCF
:1027F000ED04C4F81059012A59D0CC78012C0BD023
:102800004C694CB1D0F834480D7805F00F0601251D
:10281000B5402C43C0F83448CC78012C4FD000EBA5
:102820004313D3F8004944F00444C3F80049CB787B
:10283000012BC4D114460B46C9681A789B8A0094B0
:10284000FFF77AFFBBE700EB4314D4F81059ED0C07
:10285000ED04C4F81059D4F8105925F0FF5525F4AB
:10286000C015C4F81059D4F810694D698F683D44FB
:10287000013DB5FBF7F5344F07EAC5453543C4F8CC
:102880001059D4F810594E69C6F312063543C4F8EE
:10289000105904F51064CD78012DACD1256925F0CF
:1028A000C0452561256945F000552561A3E70C6900
:1028B000002CB1D000EB4315C5F81449ACE7D0F8B3
:1028C000084814F4807F08D100EB4315D5F800497F
:1028D00044F00054C5F80049A1E700EB4315D5F8D2
:1028E000004944F08054C5F8004998E78E683544A3
:1028F000013DB5FBF6F52669134F07EAC5473E4390
:10290000266127698E68ADB206FB05F5C5F3120591
:102910003D43256146E7CA68002A3FF446AF62613D
:1029200043E7D0F8082812F4807F06D1D3F8002BB3
:1029300042F00052C3F8002B3BE7D3F8002B42F0E3
:102940008052C3F8002B34E70000F81F03329208CE
:10295000002393420CD210B400F58054246841F84F
:10296000044B01339342F7D308465DF8044B70479C
:10297000084670470B784A78012A14D000EB4310C0
:10298000D0F8002B002A06DB2BB1D0F8003B23F057
:102990008043C0F8003BD0F8003B43F40013C0F87C
:1029A000003B0020704700EB4310D0F80029002ABC
:1029B00006DB2BB1D0F8003923F08043C0F8003992
:1029C000D0F8003943F40013C0F80039E9E70B7878
:1029D0004A78012A0ED000EB4310D0F8003B23F4D4
:1029E0000013C0F8003BCB78023BDBB2012B15D9BA
:1029F0000020704700EB4310D0F8003923F4001397
:102A0000C0F80039CB78023BDBB2012BF0D8D0F80C
:102A1000003943F08053C0F80039E9E7D0F8003BB3
:102A200043F08053C0F8003BE2E7D0F8003823F4CD
:102A3000FE63C0F80038D0F80038090101F4FE61E7
:102A40000B43C0F800380020704708B5D0F80438B0
:102A500023F00203C0F804380320FDF7E9FD00204D
:102A600008BD08B5D0F8043843F00203C0F80438B4
:102A70000320FDF7DDFD002008BD4269806910409C
:102A80007047D0F8183800F50060C0691840000C95
:102A90007047D0F8183800F50060C069184080B25F
:102AA000704700EB4111D1F8082B00F50060406938
:102AB0001040704710B4D0F81048D0F8343801F006
:102AC0000F02D340DB01DBB2234300EB411000F5E2
:102AD0001060806818405DF8044B7047406900F052
:102AE00001007047D0F8003923F4FF6323F0070397
:102AF000C0F8003900F500639A6802F00602042A63
:102B000005D05A6842F480725A6000207047D0F8AD
:102B1000002942F00302C0F80029F2E710B4046C67
:102B2000154B9C4203D9D0F8003B002B16DB002448
:102B3000C0F8104BD0F8104B44F40024C0F8104BF0
:102B4000D0F8104B44F01804C0F8104BD0F8104BDC
:102B500044F0C044C0F8104B012903D000205DF8B8
:102B6000044B7047C0F8142BD0F8003B43F080238F
:102B7000C0F8003BF2E700BF0A30544F10B5D0F860
:102B80009042D0F894325BB194F80002FF2807D04D
:102B90009B6894F8012221469847FF2384F800326D
:102BA000002010BD43230380004870470800002028
:102BB00043230380004870474C00002043230380D8
:102BC00000487047900000200A23038000487047A7
:102BD000D400002038B50446D0F8905201F061FDD1
:102BE000C5F80C02D4F890324BB1D4F89432DB68BB
:102BF00005F50371D5F804029847002038BD02207E
:102C0000FCE770B5D0F89022D0F89852FAB101EBF9
:102C10008104A3000344DB694BB1C1EBC106B400DE
:102C200025446D6CB3FBF5F405FB14331BB1002098
:102C3000C2F8140270BD01EB81029300034400242A
:102C4000DC612346224601F06EFD2046F2E70220B9
:102C5000F0E770B582B005460C46D0F890620023CC
:102C60008DF80730ADF804300B7813F0600227D0F0
:102C7000202A56D1CA883AB9D0F894329B680022EB
:102C80004878984700204FE013F0800F0CD0D0F820
:102C900094329B68314660789847E28831462846EE
:102CA00000F094FD00203FE04B7886F800328B79ED
:102CB00086F80132CA88314600F09DFD002033E0DD
:102CC0004B780A2B14D00B2B21D01BB100F083FAC8
:102CD000022029E090F87432032B05D1022201A9C9
:102CE00000F074FD00201FE000F075FA02201BE0E8
:102CF00090F87432032B06D101220DF1070100F088
:102D000065FD002010E000F066FA02200CE090F86B
:102D10007432032B01D1002006E000F05CFA02209F
:102D200002E000F058FA022002B070BD38B5044647
:102D3000812101F0D8FC0025E5620121204601F047
:102D4000D2FCC4F858518221204601F0CCFC256405
:102D5000D4F890324BB1D4F894325B689847D4F8E9
:102D6000900201F0DFFDC4F89052002038BD38B564
:102D70000446037CA3BB4FF400730222812101F0BF
:102D8000A7FC0125E5624FF4007302222946204684
:102D900001F09EFCC4F858510823032282212046EA
:102DA00001F096FC012323644FF4077001F0B2FD9B
:102DB0000546C4F8900268B3D4F894321B6898476B
:102DC0000023C5F81432C5F81832237CC3B1402360
:102DD000D5F804220121204601F0ADFC002038BDC9
:102DE00040230222812101F073FC0125E56240238A
:102DF00002222946204601F06BFCC4F85851CBE76B
:102E00004FF40073D5F804220121204601F093FC11
:102E10000020E4E70120E2E719B1C0F89412002095
:102E2000704702207047D0F89032C3F80812C3F8F8
:102E3000102200207047D0F89032C3F8041200200E
:102E40007047D0F89022A2B108B5D2F814320BB175
:102E5000012008BD0123C2F81432D2F810320363F6
:102E6000B2F81032D2F80822812101F05CFC002077
:102E7000EFE702207047D0F890229AB108B5037CA2
:102E80003BB14023D2F80422012101F054FC002080
:102E900008BD4FF40073D2F80422012101F04BFC6D
:102EA0000020F5E70220704798B108B50346D0F836
:102EB0008C0210B10020C3F88C0209B1C3F888124B
:102EC0001846012380F87432027001F09FFB002045
:102ED00008BD0220704719B1C0F88C12002070475D
:102EE0000220704708B501F0EBFB002008BD08B5D3
:102EF000D0F88C3233B11B68984708B9002008BD60
:102F00000220FCE70220FAE708B5D0F88C325B68B3
:102F10009847002008BD38B5044600F520752846BE
:102F200000F045F90123C4F86C32B4F88632C4F8D5
:102F3000703294F8801201F01F03012B0ED03BB1C8
:102F4000022B10D001F08001204601F0D4FB03E0F9
:102F50002946204600F0B5FA002038BD2946204613
:102F600000F0E3FAF8E72946204600F00EFBF3E70D
:102F700038B50446A1BB1046D4F86C32032B03D0FD
:102F8000052B24D0002037E0D4F84C31D4F8502160
:102F900093420DD99B1AC4F84C319A4206D99AB281
:102FA0000146204600F036FC002025E092B2F7E70B
:102FB000D4F88C321B692BB194F87422032A01D106
:102FC00020469847204600F02DFC002014E0002504
:102FD000C4F86C522946204601F08DFB28460BE0D0
:102FE0000A46D0F88C329B693BB190F874120329E1
:102FF00005D111469847002038BD0220FCE7022089
:10300000FAE710B50446002953D11046D4F86C32C3
:10301000022B0CD0042B00D01BB98021204601F0DC
:103020006AFB94F87832012B3FD000204DE0236AF0
:10303000626A93421DD8E169B1FBF2F302FB1313FC
:103040002BB98A4203D8D4F8703299421FD3D4F8EE
:103050008C32DB682BB194F87422032A01D120460C
:1030600098478021204601F046FB204600F0E5FB12
:10307000D7E79A1A226292B20146204600F0B3FBCB
:1030800000231A461946204601F055FBC9E70022E5
:103090001146204600F0A7FB0021C4F870120B4631
:1030A0000A46204601F047FBBBE7002084F878027F
:1030B0000BE00A46D0F88C325B693BB190F8741291
:1030C000032905D111469847002010BD0220FCE7D6
:1030D0000220FAE770B5044640230022114601F0B1
:1030E000F7FA0125C4F844514026C4F8506133462C
:1030F00000228021204601F0EBFAA561666284F887
:1031000074520023C4F86C326360C4F87C32D4F883
:1031100090322BB1D4F88C325B680021204698475E
:10312000002070BD01740020704790F8743280F860
:103130007532042380F874320020704790F875329D
:1031400080F874320020704708B590F87432032B71
:1031500001D0002008BDD0F88C32DB69002BF8D0FC
:103160009847F6E70020704700207047002070471E
:1031700008B5012280F87422D0F88C2252680179B7
:103180009047002008BD002302E00133DBB201308C
:103190000278002AF9D11846704708B54B88012BF0
:1031A00000D008BDC0F87C3200F03CFBF9E70B789A
:1031B00003704B7843708B78CA7803EB022343800B
:1031C0000B794A7903EB022383808B79CA7903EB6D
:1031D0000223C380704710B50446802101F08BFAAA
:1031E0000021204601F087FA10BD30B583B00546B6
:1031F0000C464A88130A013B062B00F28480DFE864
:1032000003F004162A8282667300D0F888321B68A5
:103210000DF10601007C9847BDF8062012B1E38845
:10322000002B74D1E388002B7BD003B030BD037C2E
:1032300043B9D0F88C329B6A0DF1060098470223FF
:103240004370E9E7D0F88C32DB6A0DF1060098474D
:1032500002234370E0E7D2B2052A34D8DFE802F057
:10326000030B131B232BD0F888325B680DF106018A
:10327000007C9847D0E7D0F888329B680DF10601B2
:10328000007C9847C8E7D0F88832DB680DF106016A
:10329000007C9847C0E7D0F888321B690DF1060121
:1032A000007C9847B8E7D0F888325B690DF10601D9
:1032B000007C9847B0E7D0F888329B690DF1060191
:1032C000007C9847A8E72146FFF785FFADE7037C20
:1032D00033B9D0F88C325B6B0DF1060098479BE751
:1032E0002146FFF778FFA0E7037C43B9D0F88C3282
:1032F0001B6B0DF106009847072343708CE72146AE
:10330000FFF769FF91E72146FFF765FF8DE79A42D6
:1033100028BF1A46ADF806200146284600F056FAA6
:1033200080E7284600F07EFA7FE738B504468B88B0
:10333000F3B9CB88E3B94B887F2B19D803F07F050D
:1033400090F87432032B0CD080F87652294601F0A5
:10335000E2F9204600F066FA35B1022384F87432AF
:1033600009E0FFF738FF06E0012384F8743202E039
:103370002046FFF730FF38BD38B504460D46897842
:10338000284B197001290ED890F87432022B0ED0F8
:10339000032B21D02946FFF71EFF224B1978204628
:1033A000FFF7B2FD02E02946FFF715FF38BD81B1F6
:1033B0004160032380F87432FFF799FD022803D09F
:1033C000204600F02FFAF1E729462046FFF703FFD9
:1033D000ECE700F027FAE9E789B1436899421DD08C
:1033E000D9B2FFF791FD0F4B197861602046FFF7C6
:1033F0007EFD02280DD0204600F014FAD6E7022305
:1034000080F874324160FFF77FFD204600F00AFA31
:10341000CCE729462046FFF7DEFEC7E700F002FAB8
:10342000C4E700BF0402002008B5CB88012B0BD1F4
:1034300090F874329BB1022B09D9032B0FD10122D2
:10344000011D00F0C3F901E0FFF7C5FE08BD01460C
:10345000002341F8083F012200F0B8F9F6E7FFF732
:10346000BAFEF3E708B590F87432013B022B12D88C
:10347000CB88022B0CD10123C360D0F87C320BB176
:103480000323C360022200F10C0100F09FF908BD84
:10349000FFF7A1FEFBE7FFF79EFEF8E708B590F8FF
:1034A0007432013B022B09D84B88012B00D008BD98
:1034B0000023C0F87C3200F0B5F9F8E7FFF78BFE87
:1034C000F5E708B50B7803F06003202B05D0402BFF
:1034D00003D043B1FFF77FFE03E0D0F88C329B6846
:1034E0009847002008BD4B78092B1BD8DFE803F074
:1034F00011171A141A08051A0E0BFFF776FEF0E7DB
:10350000FFF713FFEDE7FFF737FFEAE7FFF78CFF61
:10351000E7E7FFF7A7FFE4E7FFF73FFEE1E7FFF785
:10352000BDFFDEE7FFF757FEDBE738B505460C4683
:103530000B7803F06003202B06D0402B04D01BB186
:10354000FFF749FE002038BD95F87432013B022B8D
:1035500016D82379012B0ED8D5F88C329B682146DA
:1035600028469847E388002BECD10028EAD128466A
:1035700000F058F9E6E721462846FFF72CFEE1E780
:1035800021462846FFF727FEDCE738B504468A883F
:103590000B7803F06003202B08D0D0B2402B05D06D
:1035A0005BB12046FFF717FE002005E0D4F88C320F
:1035B0009B6820469847002038BD202B05D1D4F8C1
:1035C0008C329B6820469847F6E74B78012B32D027
:1035D000002B5ED0032B40F0D68094F87432022B7F
:1035E00006D0032B16D02046FFF7F5FD0020E3E7B9
:1035F00008B1802804D12046FFF7EDFD0020DBE76D
:103600000146204601F077F88021204601F073F84A
:103610000020D1E74B8823B918B1802801D0CB888E
:1036200023B1204600F0FEF80020C5E70146204601
:1036300001F061F8F5E794F87432022B06D0032B01
:1036400016D02046FFF7C7FD0020B5E708B1802857
:1036500004D12046FFF7BFFD0020ADE7014620461C
:1036600001F049F88021204601F045F80020A3E749
:103670004B88002B40F08C8010F07F0F04D1204647
:1036800000F0D0F8002097E70146204601F03BF813
:10369000F5E794F87432022B06D0032B29D020468C
:1036A000FFF799FD002087E708B1802812D112F0BA
:1036B000800F14D100F07F0000EB8000830003F541
:1036C000A073E11800250D600222204600F07EF86C
:1036D000284671E72046FFF77EFD00206CE700F0EA
:1036E0007F0000EB8000830003F1100121440431CE
:1036F000E8E752B2002A1EDB00F00F0303EB83035E
:103700009D002544D5F844311BB3002A26DB00F088
:103710007F0202EB8202930003F5A073E51808B163
:10372000802825D100232B6002222946204600F064
:103730004DF8002040E700F00F0303EB83039D00EA
:103740002544AB69002BE0D12046FFF744FD002063
:1037500032E72046FFF73FFD00202DE700F07F0213
:1037600002EB8202930003F1100525440435D6E7ED
:103770000146204600F07EFF10B101232B60D3E705
:1037800000232B60D0E72046FFF725FD002013E73C
:10379000002011E7C8B170B50D4616460446FFF784
:1037A000F2FC013040003080287003236B7002234C
:1037B00007E001345A1CD2B2E9540233DBB20021D3
:1037C000A95421780029F4D170BD704710B5134673
:1037D0000222C0F86C22C36103620A46002100F095
:1037E000A2FF002010BD08B513460A46002100F0D4
:1037F0009AFF002008BD10B513460322C0F86C22C2
:10380000C0F84831C0F84C310A46002100F093FF5F
:10381000002010BD08B513460A46002100F08BFFBA
:10382000002008BD08B50423C0F86C3200231A46F6
:10383000194600F078FF002008BD08B50523C0F840
:103840006C3200231A46194600F075FF002008BDAF
:103850002DE9F0438DB000240794089409940A944C
:103860000B9401943C4B1A6B42F010021A631A6BD2
:1038700002F010020192019A02941A6B42F00402C3
:103880001A631A6B02F004020292029A03941A6BF2
:1038900042F080021A631A6B02F080020392039ACC
:1038A00004941A6B42F001021A631A6B02F00102CF
:1038B0000492049A05941A6B42F008021A631A6B78
:1038C00002F008020592059A06941A6B42F0020271
:1038D0001A631B6B03F002030693069BDFF88490C8
:1038E000224640214846FCF7FAFFDFF87C8022465A
:1038F0004FF420414046FCF7F2FF184F22464FF4A8
:1039000078413846FCF7EBFF4026079601250895DD
:1039100009940A9407A94846FCF708FF4FF420438E
:103920000793089509940A9407A94046FCF7FEFE00
:103930004FF478430793089509940A9407A93846E9
:10394000FCF7F4FE07960894099407A90448FCF7CD
:10395000EDFE0DB0BDE8F08300380240000C0240DF
:1039600000040240001002400008024008B50C4864
:103970000C4B03604FF48273436000238360C36089
:10398000036143614FF4007282612022C2610362CD
:10399000436283620A23C362FEF794F808BD00BF46
:1039A000D00A00200030014030B587B000240294D6
:1039B000039404940594009401940F4D0F4B2B60D5
:1039C00046F2A7136B60AC6040F2E733EB602C610A
:1039D000AC612846FEF7D2FA4FF48053029302A955
:1039E0002846FEF7F0FA0094019469462846FEF74F
:1039F00057FB07B030BD00BF380200200008004070
:103A000000B583B002A901F8010D4FF0FF33012288
:103A10000248FEF797F803B05DF804FBD00A0020D7
:103A200010B5074C00224FF400412046FCF757FF29
:103A300001224FF400412046FCF751FF10BD00BFAA
:103A40000008024038B5054600224FF400610A48DC
:103A5000FCF745FF094C00224FF400512046FCF7CB
:103A60003EFF2846FFF7CCFF01224FF400512046CD
:103A7000FCF735FF38BD00BF000C024000080240D3
:103A800070B506460D464020FFF7DCFF8020FFF7AB
:103A9000D9FF01224FF400610B48FCF720FF002200
:103AA0004FF400510948FCF71AFF002403E0305D91
:103AB000FFF7A6FF0134AC42F9DB01224FF40051BD
:103AC0000248FCF70CFF70BD000C024000080240E9
:103AD00070B506460D4601224FF400610B48FCF715
:103AE000FEFE00224FF400510948FCF7F8FE0024C6
:103AF00003E0305DFFF784FF0134AC42F9DB0122C3
:103B00004FF400510248FCF7EAFE70BD000C024081
:103B10000008024070B582B00546FCF7E1FC86B2B1
:103B2000002414E02B5D203B03EB430359000B4BB7
:103B30000B44995C02AB134403F8081C0132052ABC
:103B4000F0DD06216846FFF7C3FF0134A4B2B4429A
:103B500001D20022F3E702B070BD00BFBC510008E3
:103B600070B506460D46FCF7BBFC04462846FCF73C
:103B7000B7FC2044013000F0CDFE0446314600F091
:103B8000C8FF2946204600F0B5FF204670BD000062
:103B900010B582B00C460022012302E05B00DBB2CC
:103BA0000132032A09DC815C2E29F7D02D2904D1AA
:103BB0005B00DBB20133DBB2F2E7074A1268D35C89
:103BC0008DF8043000238DF8053001A9204600F05F
:103BD000A0FF02B010BD00BF1801002038B5044698
:103BE0000D4628220021284600F0A4FE612C3BD07F
:103BF000622C3FD0632C43D0642C47D0652C49D035
:103C0000662C4BD0672C4FD0682C51D0692C55D0E6
:103C10006A2C59D06B2C5DD06C2C5FD06D2C63D08E
:103C20006E2C67D06F2C6BD0702C6DD0712C71D036
:103C3000722C75D0732C77D0742C79D0752C7BD0E6
:103C4000762C7DD0772C00F08180782C00F082805B
:103C5000792C00F085807A2C00F08880202C08D107
:103C6000454B1B882B8004E0444B1A889B782A80A4
:103C7000AB7038BD424B186828601B792B71F8E790
:103C8000404B186828601B792B71F2E73E4B18688F
:103C90002860EEE73D4B1B882B80EAE73C4B186819
:103CA00028601B792B71E4E73A4B18682860E0E73D
:103CB000394B186828601B792B71DAE7374B1A8863
:103CC0009B782A80AB70D4E7354B186828601B7945
:103CD0002B71CEE7334B18682860CAE7324B18685F
:103CE00028601B792B71C4E7304B1A889B782A8097
:103CF000AB70BEE72E4B1A889B782A80AB70B8E772
:103D00002C4B18682860B4E72B4B186828601B7987
:103D10002B71AEE7294B186828601B792B71A8E737
:103D2000274B18682860A4E7264B18682860A0E78E
:103D3000254B1B882B809CE7244B1868286098E74C
:103D4000234B186828601B792B7192E7214B186868
:103D500028608EE7204B186828601B792B7188E754
:103D60001E4B186828601B792B7182E71C4B186862
:103D700028601B792B717CE7A45600080C560008BC
:103D8000105600081856000820560008245600084F
:103D90002856000830560008345600083C560008E3
:103DA00040560008485600084C5600085456000873
:103DB000585600085C56000860560008685600080F
:103DC0007056000874560008785600087C560008A3
:103DD00080560008885600088C5600089456000843
:103DE0009C560008F8B50268714B9A4200D0F8BDA5
:103DF00040217048FCF76CFD012812D06E4A1389EF
:103E000001339BB213815268012A00F09F80002B7E
:103E100000F0A1800C2B40F2B480674B00221A8185
:103E200099E0654B1B78012B29D0634B1B89002B34
:103E3000DDD0614AD3680133D3600D2B43DD1346D7
:103E4000127C01321A740022DA605A745A4B1B89B0
:103E5000032B02D8584A00215161042B38D8022B79
:103E600069D9564D2846FFF755FE554C294620681E
:103E7000FFF776FE2060504B00221A81B7E7514DC4
:103E8000514F524E2B687A685149304600F012FE6D
:103E9000C1B2494C6170304600F0F8FA4D4E7E6078
:103EA00029684D48FFF75CFE454F38604B49FFF7E6
:103EB00057FE3860FFF72EFE3E602E6001236360E0
:103EC0000023237093E73C4A537C06335374BDE7C9
:103ED0003B4C3D4D21686868FFF742FE6860404EEC
:103EE0003146FFF73DFE686021680846FFF750FE47
:103EF000344D21682868FFF733FE2860354B236076
:103F00003046FFF707FE2C4B5B69012B0AD02A4B8A
:103F100001225A61284B1B89082BACD9264B012260
:103F20001A70A8E731462868FFF71AFE2860224B6E
:103F300000225A61EEE72B4D2846FFF7EBFD204C9F
:103F400029462068FFF70CFE206094E71A4A0021FA
:103F5000517411745BB9184C207C40F04000FFF79D
:103F600071FD607C40F08000FFF76CFD3FE74FF48F
:103F7000FC711D48FFF784FD0F4B00225A601A8127
:103F8000E9E7082B07D8042B09D8022B0BD90B48DB
:103F9000FFF7C0FDDFE71548FFF7BCFDDBE7104882
:103FA000FFF7B8FDD7E70F48FFF7B4FDD3E700BF31
:103FB0000008004000040240080200207856000873
:103FC000CC0200207802002018010020A40200206A
:103FD000A8560008CC560008B4560008C056000881
:103FE000A456000824560008FC530008C4560008D4
:103FF00030B595B03022002108A800F09BFC0024C9
:104000000394049405940694079401941B4B1A6C32
:1040100042F080521A641B6C03F080530193019BA1
:104020000294174B1A6842F440421A601B6803F46A
:1040300040430293029B012308934FF4803309937A
:1040400002250E954FF480030F9304231093482309
:10405000119312950323139308A8FDF7EDF90F238D
:104060000393049505944FF48053069307942946CF
:1040700003A8FDF719FC15B030BD00BF00380240A1
:1040800000700040F0B595B0FCF7A6FAFFF7B0FF5E
:10409000FFF7DEFBFFF76AFCFFF786FC00F08EF906
:1040A0005248FDF74BFE012240215148FCF717FC16
:1040B000FFF7B6FC2120FFF7C5FC1420FFF7C2FC78
:1040C000AF20FFF7BFFC2020FFF7BCFC0C20FFF760
:1040D000B9FC002404E001210020FFF7F9FC0134C1
:1040E000B4F5FC7FF7DB4020FFF7ACFC8020FFF746
:1040F000A9FC4FF4FC713F48FFF7C2FC4020FFF7DA
:10410000A1FC8020FFF79EFC4BE069460AA8FFF760
:104110003FFD002305E014AA1A44002102F8281CE0
:104120000133272BF7DD69462846FFF719FD0546C1
:10413000002303E000228DF828200133272BF9DD2E
:104140004FF0FF360CE069462B4B185DFFF746FD3C
:1041500069462846FFF704FD2849FFF701FD05469B
:104160000134272C11DC244B1B782D3BDBB2012BB7
:10417000E9D8214B1B5D202BC7D0262CC5DC01368E
:1041800014AA324402F8283CEAE72846FFF7C2FCAA
:10419000002304E01A4A0021D1540133DBB2272B5B
:1041A000F8D9184B1B7E012BFBD14020FFF74AFCAE
:1041B0008020FFF747FC4FF4FC710E48FFF760FCCE
:1041C000104F00243C760C4D0D4E2A460E493046C9
:1041D00000F070FCC1B27970304600F057F9284603
:1041E000FFF798FC4FF0FF36084DBAE73802002081
:1041F00000100240FC530008D0020020A456000822
:10420000A402002008020020D0560008C85600086A
:104210007047000082B0002100910B4B5A6C42F4B1
:1042200080425A645A6C02F480420092009A0191D2
:104230001A6C42F080521A641B6C03F08053019395
:10424000019B02B0704700BF0038024000B589B042
:104250000023039304930593069307930268154B79
:104260009A4202D009B05DF804FB0021019103F5E8
:1042700084335A6C42F480525A645A6C02F480526D
:104280000192019A02911A6B42F001021A631B6BB0
:1042900003F001030293029BA023039302230493E0
:1042A000032306930523079303A90348FCF73EFA6B
:1042B000D8E700BF003001400000024002680E4B0A
:1042C0009A4200D0704700B583B00021019103F5F8
:1042D0000C331A6C42F004021A641B6C03F00403E2
:1042E0000193019B0A461E20FCF7C8F91E20FCF72B
:1042F000F9F903B05DF804FB000800407047FEE7E1
:10430000FEE7FEE7FEE770477047704708B5FCF729
:104310007DF908BD08B50248FDF725FD08BD00BFC1
:104320003802002008B50248FCF7A6FC08BD00BF13
:10433000C41D002008B503460B4A126842B10A4A60
:10434000106803446A46934206D8074A136008BDC2
:10435000054A06491160F2E700F0B2FA0C23036047
:104360004FF0FF30F3E700BF24020020D0230020ED
:104370000F49D1F8883043F47003C1F888300D4BF1
:104380001A6842F001021A60002098601A6822F050
:10439000847222F480321A60074A5A601A6822F442
:1043A00080221A60D8604FF000638B60704700BFB6
:1043B00000ED00E0003802401030002408B5002273
:1043C0000F491048FEF770FD70B90F490D48FEF710
:1043D00082FD60B90D490B48FEF71EFD50B9094832
:1043E000FEF780FD48B908BDFFF712FFEDE7FFF7C4
:1043F0000FFFEFE7FFF70CFFF1E7FFF709FFF2E729
:1044000068010020280B0020E0000020240100208B
:10441000002070470020704770B504460E460E4DD0
:1044200001462846FEF707FD2846FEF724FD002337
:1044300004E00A4A0021D1540133DBB2272BF8D91A
:10444000326801322146054800F06BFB044B012223
:104450001A70002070BD00BF280B0020D002002081
:104460002002002010B5064C002206492046FEF727
:10447000DAFC05492046FEF7DEFC002010BD00BF37
:10448000280B0020C4150020C40D0020094BD3F8D0
:104490009032D3F814320BB10120704710B50A46A0
:1044A0000146044C2046FEF7BEFC2046FEF7C9FC40
:1044B00010BD00BF280B00200368B3F1A04F00D04F
:1044C000704730B589B000250195184C236B43F037
:1044D00001032363236B03F001030193019B4FF45A
:1044E000C0530393022304930595032306930A23E1
:1044F000079303A90E48FCF719F9636B43F0800397
:1045000063630295636C43F480436364636C03F4F8
:1045100080430293029B2A4629464320FCF7AEF8CB
:104520004320FCF7DFF809B030BD00BF003802407F
:104530000000024008B500F57171D0F80404FEF7E0
:10454000EAFC08BD08B5C1EBC10293000344D3F8EF
:104550000822D0F80404FEF70BFD08BD08B5C1EB36
:10456000C102930003449A6CD0F80404FEF749FD9D
:1045700008BD08B5D0F80404FEF7E6FD08BD10B587
:104580000446C368022B01D0FFF742FE0121D4F894
:104590000404FEF7C7FDD4F80404FEF79BFD10BD2C
:1045A00010B50446D0F80404FEF7BFFD2268D2F827
:1045B000003E43F00103C2F8003E236A23B1034AE0
:1045C000136943F00603136110BD00BF00ED00E066
:1045D00008B5D0F80404FEF7B1FD08BD08B5D0F861
:1045E0000404FEF7C1FD08BD08B5D0F80404FEF7C9
:1045F000B9FD08BD08B5D0F80404FEF7B7FD08BD45
:1046000008B5D0F80404FEF7B3FD08BD03780BB17C
:104610000020704710B503461548C0F80434C3F8AD
:1046200098024FF0A0430360042343600222C2605B
:10463000002303618261C36103624362C362036357
:10464000FCF7BDF980B90A4C80212046FCF7EFFE4B
:10465000402200212046FCF7C6FE80220121204690
:10466000FCF7C1FE002010BDFFF7D2FDEBE700BF55
:10467000C41D0020D0F8983211F0800F08D101F04D
:104680007F01C1EBC1018A00134493F8FE0170471A
:1046900001F07F01C1EBC1018A00134493F83E0091
:1046A000704708B5D0F89802FCF7F2FD08BD18B1C4
:1046B000022803D002207047002070470120704775
:1046C00008B5D0F89802FCF704FAFFF7F0FF08BD30
:1046D00010B51C4613462246D0F89802FCF732FD6E
:1046E000FFF7E5FF10BD08B5D0F89802FCF76BFDA9
:1046F000FFF7DDFF08BD08B5D0F89802FCF7FBFD19
:10470000FFF7D5FF08BD08B5D0F89802FCF734FED6
:10471000FFF7CDFF08BD08B5D0F89802FCF7FEFC06
:10472000FFF7C5FF08BD08B5D0F89802FCF7B9FD42
:10473000FFF7BDFF08BD08B5D0F89802FCF77AFD79
:10474000FFF7B5FF08BD000012230B80004870473B
:104750003401002004230B800048704748010020EA
:104760000023934216D230B40BE0373401F81340E3
:1047700000015C00013400250D550133DBB293428A
:1047800006D2040F092CF0D8303401F81340EFE7BB
:1047900030BC70477047000038B50B4B18680433C5
:1047A0001C6804331B68C01800D138BD074D0822AF
:1047B00005F11A01FFF7D4FF042205F12A01204672
:1047C000FFF7CEFFF1E700BF107AFF1F3401002092
:1047D00008B51A230B80FFF7DFFF014808BD00BFB3
:1047E0004C01002008B50A4628B105490548FEF7E6
:1047F000D1FF034808BD02490248FEF7CBFFF8E7A6
:10480000CC2100200457000810B5044C0A4621466C
:104810000348FEF7BFFF204610BD00BFCC2100209B
:104820001C57000808B50A4628B105490548FEF797
:10483000B1FF034808BD02490248FEF7ABFFF8E7A5
:10484000CC2100203057000808B50A4628B1054998
:104850000548FEF79FFF034808BD02490248FEF7DE
:1048600099FFF8E7CC2100203C570008DFF834D04E
:10487000002103E00C4B5B58435004310B480C4BB8
:1048800042189A42F6D30B4A02E0002342F8043B56
:10489000094B9A42F9D3FFF76BFD00F017F8FFF7C9
:1048A000F1FB704700000220905700080000002034
:1048B000E8010020E8010020D0230020FEE70000EE
:1048C000014B1868704700BF8401002070B50D4E81
:1048D0000D4CA41BA4100025A54209D10B4E0C4C75
:1048E00000F060FCA41BA4100025A54205D170BDFA
:1048F00056F8253098470135EEE756F825309847A9
:104900000135F2E7885700088857000888570008E3
:104910008C570008024B0146186800F061B800BFD0
:1049200084010020024B0146186800F00BB800BF5C
:104930008401002002440346934200D1704703F8EB
:10494000011BF9E738B50546002945D051F8043C6C
:104950000C1F002BB8BFE41800F0F8F81F4A1368CA
:10496000104633B9636014602846BDE8384000F053
:10497000EEB8A3420CD921686218934204BF1A68AA
:104980005B68636004BF521822600460ECE7134662
:104990005A680AB1A242FAD919685818A0420BD134
:1049A00020680144581882421960DDD110685268AD
:1049B0005A6001441960D7E702D90C232B60D3E772
:1049C000206821188A4204BF11685268626004BFDF
:1049D000091821605C60C7E738BD00BF2C020020C9
:1049E00070B5CD1C25F0030508350C2D38BF0C25FE
:1049F000002D064601DBA94203D90C2333600020B9
:104A000070BD00F0A3F8214A1468214691B9204CEA
:104A100023681BB9304600F03DF820602946304637
:104A200000F038F8431C24D10C233360304600F0EA
:104A30008EF8E4E70B685B1B18D40B2B0FD90B60C7
:104A4000CD50CC18304600F082F804F10B00231D45
:104A500020F00700C31AD3D05A42E250D0E78C426C
:104A60004B6816BF636013600C46EBE70C46496861
:104A7000CCE7C41C24F00304A04205D0211A304620
:104A800000F008F80130CFD02560DBE72C020020D1
:104A90003002002038B5064C002305460846236046
:104AA000FFF748FC431C02D1236803B12B6038BDDB
:104AB000CC2300200EB400B59CB01DAB0290069034
:104AC0006FF00041094807910491094953F8042BFC
:104AD00005910068019302A900F094F8029B00225E
:104AE0001A701CB05DF804EB03B07047840100201D
:104AF0000802FFFF10B503461A785C1C3AB9013B67
:104B000011F8012B03F8012F002AF9D110BD23461B
:104B1000F2E7034611F8012B03F8012B002AF9D123
:104B2000704710B50B4662B1013A08D013F8014B3B
:104B300000F8014B002CF7D1581A013810BD0022A3
:104B4000027013F8012B002AFBD1F5E7704770477C
:104B50002DE9F0478E689E4282460C469046994663
:104B600037D88A8912F4906F31D0256809696F1A95
:104B70006569022305EB450595FBF3F509F1010392
:104B80003B449D4238BF1D46530530D52946FFF7AB
:104B900027FF064650B90C23CAF80030A38943F01A
:104BA0004003A3814FF0FF30BDE8F0873A4621690A
:104BB00000F0A6FAA38923F4906343F08003A38155
:104BC000266165613E44ED1B2660A5604E464E455C
:104BD00000D94E4632464146206800F09CFAA36850
:104BE0009B1BA36023681E4426600020DCE72A4646
:104BF00000F0AAFA06460028E2D121695046FFF7E4
:104C0000A1FEC8E72DE9F04F9DB0804603938B8944
:104C10001D060C4616460FD50B696BB94021FFF7F0
:104C2000DFFE2060206128B90C23C8F800304FF067
:104C3000FF30C7E0402363610023099320238DF8F0
:104C4000293030238DF82A304FF0010B37463D468E
:104C500015F8013B0BB1252B3ED1B7EB060A0BD063
:104C60005346324621464046FFF772FF013000F0BE
:104C7000A480099B534409933B78002B00F09D804E
:104C800000234FF0FF32CDE90523049307938DF8FD
:104C900053301A932F46052217F8011B4F48FBF794
:104CA00027FC049BD0B9D90644BF20228DF853209D
:104CB0001A0744BF2B228DF853202A782A2A15D0B0
:104CC000079A2F4600200A25394611F8013B303B50
:104CD000092B4DD9B8B10FE02F46B8E73F4A801AEB
:104CE0000BFA00F0184304903D46D3E7039A111DD8
:104CF00012680391002A01DB079204E0524243F05C
:104D00000203079204933B782E2B0CD17B782A2B3D
:104D100033D1039B1A1D1B680392002BB8BF4FF0C1
:104D2000FF33023705932E4D397803222846FBF7CF
:104D3000DFFB38B14023401B03FA00F0049B034320
:104D400001370493397827488DF8281006227E1CF5
:104D5000FBF7CEFB002838D0234B13BB039B073354
:104D600023F0070308330393099B4B4409936DE732
:104D700005FB023201200F46A6E700230137059309
:104D800019460A25384610F8012B303A092A03D96A
:104D9000002BC8D00591C6E705FB0121012307467A
:104DA000F0E703AB00932246104B04A94046AFF353
:104DB0000080B0F1FF3F8146D6D1A3895B063FF565
:104DC00036AF09981DB0BDE8F08F03AB00932246C3
:104DD000064B04A9404600F081F8EAE74C5700086A
:104DE000525700085657000800000000514B0008B9
:104DF0002DE9F04791461F468A680B69DDF820804F
:104E00009342B8BF1346C9F8003091F843200646D4
:104E10000C4612B10133C9F800302368990642BF2D
:104E2000D9F800300233C9F80030256815F00605BE
:104E300007D104F1190AE368D9F800209B1AAB42A4
:104E400028DC94F843302268003318BF012392060F
:104E50002DD404F1430239463046C047013020D0FA
:104E60002368E568D9F8002003F00603042B08BF87
:104E7000AD1AA36822690CBF25EAE57500259342A7
:104E8000C4BF9B1AED184FF000091A344D451AD1D2
:104E9000002008E00123524639463046C047013021
:104EA00003D14FF0FF30BDE8F0870135C3E7E118CB
:104EB0005A1C302081F84300224494F8451082F8AF
:104EC00043100233C5E70123224639463046C04726
:104ED0000130E6D009F10109D8E700002DE9F043DF
:104EE00001F1430C0C46097E85B06E291746064633
:104EF00098460C9A00F0B38022D8632936D00AD89D
:104F0000002900F0B980582900F0838004F142059F
:104F100084F8421032E0642901D06929F6D1206872
:104F20001368050603F104012AD51B681160002BE4
:104F300003DA2D225B4284F843206F480A2239E0CD
:104F4000732900F09D8008D86F2920D07029DDD109
:104F5000236843F02003236003E0752917D07829E4
:104F6000D4D1782384F84530644855E01368191D7E
:104F70001B68116004F1420584F8423001238CE083
:104F80001B68116010F0400F18BF1BB2CFE7136809
:104F90002568181D1060280601D51B6802E0680608
:104FA000FBD51B8854486F2914BF0A220822002110
:104FB00084F843106568A560002DC0F295802168D3
:104FC00021F004012160002B3DD1002D40F08E80A6
:104FD0006546082A0BD12368DB0708D52369626878
:104FE0009A42DEBF302305F8013C05F1FF35ACEBFA
:104FF00005032361CDF800803B4603AA21463046D5
:10500000FFF7F6FE01304DD14FF0FF3005B0BDE89F
:10501000F083394884F84510136821681D1D1B680A
:1050200015600A060BD5CA0744BF41F02001216074
:105030001BB9226822F0200222601022B7E74D0639
:1050400048BF9BB2EFE76546B3FBF2F102FB1133B9
:10505000C35C05F8013D0B460029F5D1B9E713689B
:1050600025686169181D106028061B6801D5196044
:1050700002E06A06FBD51980002323616546B9E783
:105080001368191D11601D68626800212846FBF72E
:105090002FFA08B1401B606063682361002384F825
:1050A0004330A7E723692A4639463046C0470130D6
:1050B000AAD023689B0713D4E068039B9842B8BF2B
:1050C0001846A3E701234A4639463046C047013017
:1050D0009AD00135E368039A9B1AAB42F2DCEBE706
:1050E000002504F11909F5E7002BACD1037884F809
:1050F000423004F142056CE75D5700086E57000826
:1051000010B5431E0A44914200D110BD11F8014B65
:1051100003F8014FF7E7884210B501EB020307D807
:10512000421E99420AD011F8014B02F8014FF8E7EC
:105130008342F5D98118D21AD34200D110BD13F899
:10514000014D01F8014DF7E7F8B5074614460E4644
:1051500021B91146BDE8F840FFF742BC22B9FFF77C
:10516000F1FB25462846F8BD00F014F8A0420FD206
:1051700021463846FFF734FC05460028F2D0314678
:105180002246FFF7BDFF31463846FFF7DBFBE9E774
:105190003546E7E751F8043C181F002BBCBF0B58FD
:1051A000C0187047F8B500BFF8BC08BC9E467047F1
:0C51B000F8B500BFF8BC08BC9E46704774
:1051BC000000000000000000005F0000000007007D
:1051CC00070000147F147F1400242A7F2A12002366
:1051DC001308646200364955225000000503000094
:1051EC0000001C224100000041221C000014083E5B
:1051FC0008140008083E08080000503000000008A1
:10520C000808080800006060000000201008040274
:10521C00003E5149453E0000427F40000042615132
:10522C004946002141454B31001814127F100027CC
:10523C0045454539003C4A4949300001710905038F
:10524C0000364949493600064949291E00003636C0
:10525C000000000056360000000814224100001423
:10526C001414141400004122140800020151090600
:10527C0000324979413E007E1111117E007F49496F
:10528C004936003E41414122007F4141221C007FB2
:10529C0049494941007F09090901003E4149497AC0
:1052AC00007F0808087F0000417F4100002040413A
:1052BC003F01007F08142241007F40404040007FA6
:1052CC00020C027F007F0408107F003E4141413EEA
:1052DC00007F09090906003E4151215E007F091932
:1052EC0029460046494949310001017F0101003F2F
:1052FC004040403F001F2040201F003F4038403FAF
:10530C000063140814630007087008070061514912
:10531C00454300007F4141000002040810200000BA
:10532C0041417F0000040201020400404040404023
:10533C00000001020400002054545478007F4844BB
:10534C00443800384444442000384444487F0038F2
:10535C005454541800087E090102000C5252523E5B
:10536C00007F080404780000447D40000020404485
:10537C003D00007F102844000000417F4000007C6D
:10538C0004180478007C0804047800384444443839
:10539C00007C1414140800081414187C007C0804F5
:1053AC00040800485454542000043F444020003C5E
:1053BC004040207C001C2040201C003C4030403CE5
:1053CC00004428102844000C5050503C00446454B5
:1053DC004C440000083641000000007F0000000033
:1053EC00413608000010080810080078464146783D
:1053FC00FFFFFFFFFFFFFFFFFFFFFFFFFFFFFFFFB1
:10540C00FFFFFFFFFFFFFFFFFFFFFFFFFFFFFFFFA0
:10541C00FFFFFFFFFFFFFFFFFFFFFF3F3F7F3F3F10
:10542C003F1F1F1F3F3F3F3F3F7FFFFFFFFFFFFF20
:10543C00FFFFFFFFFFFFFFFFFFFFFFFFFFFFFFFF70
:10544C00FFFFFFFFFFFFFFFFFFFFFFFFFFFFFFFF60
:10545C00FFFFFFFFFFFFFFFFFFFFFFFFFFFFFFFF50
:10546C00FFFF7F7F3F3F3F1F1F1F0F0F0F030000EA
:10547C000060F0F0600000008080C040405859434C
:10548C00031F3FFFFFFFFFFFFFFFFFFFFFFFFFFFBC
:10549C00FFFFFFFFFFFFFFFFFFFFFFFFFFFFFFFF10
:1054AC00FFFFFFFFFFFFFFFFFFFFFF1F0F0F0F07A8
:1054BC0087E73B0100000000000000000000000036
:1054CC000000000000E03010180C06030100000082
:1054DC0000000000000000010FFFFFFFFFFFFFFFB7
:1054EC00FFFFFFFFFFFFFFFFFFFFFFFFFFFFFFFFC0
:1054FC00FFFFFFFFFFFFFFFFFFFFFFFFFFFFFFFEB1
:10550C00FEFCFCFCFBF0E0C0808000000000000012
:10551C0000000000000000000003060C18F0101042
:10552C001010F01010180CFC080808F8F8FCFFFF1D
:10553C00FFFFFFFFFFFFFFFFFFFFFFFFFFFFFFFF6F
:10554C00FFFFFFFFFFFFFFFFFFFFFFFFFFFFFFFF5F
:10555C00FFFFFFFFFFFFFFFFFFFF3F0F07070008E5
:10556C0008181010302020C0C0C0C0C0C0C0C0C0BF
:10557C00C03F000000007FE0F0F0F87F000080FFEB
:10558C00FFFFFFFFFFFFFFFFFFFFFFFFFFFFFFFF1F
:10559C00FFFFFFFFFFFFFFFFFFFFFFFFFFFFFFFF0F
:1055AC00FFFFFFFFFFFFFFFFFFFFFFFFFFFFFEFC03
:1055BC00FCFCFCF8F8F8FCFCFEFEFFFFFFFFFFFF15
:1055CC00FFFFFFFFFFFEFEFCFCFCFFFFFFFFFFFFEA
:1055DC00FFFFFFFFFFFFFFFFFFFFFFFFFFFFFFFFCF
:1055EC00FFFFFFFFFFFFFFFF0000000000000000B7
:1055FC00010203040607080900000000010203046D
:10560C002E2D00002D2E2E2E000000002D2E2D2EC6
:10561C00000000002D2E2E002E0000002E2E2D2E10
:10562C00000000002D2D2E002E2E2E2E000000002E
:10563C002E2E00002E2D2D2D000000002D2E2D00C5
:10564C002E2D2E2E000000002D2D00002D2E0000E2
:10565C002D2D2D002E2D2D2E000000002D2D2E2D4C
:10566C00000000002E2D2E002E2E2E002D000000EE
:10567C002E2E2D002E2E2E2D000000002E2D2D0056
:10568C002D2E2E2D000000002D2E2D2D00000000A3
:10569C002D2D2E2E000000002000000025732074FC
:1056AC006F3A2025730A0D0077796E696B20746F41
:1056BC0020220000222000005800000020746F20DF
:1056CC00000000006F64656272616E6F203A2025E5
:1056DC00730A0D002A20455449414E4D53555257DB
:1056EC00444B474F4856463F4C3F504A425843590B
:1056FC005A513F3F0000000053544D33322056693D
:10570C00727475616C20436F6D506F727400000081
:10571C0053544D6963726F656C656374726F6E6917
:10572C006373000043444320436F6E666967000057
:10573C0043444320496E74657266616365000000E2
:10574C00232D302B2000686C4C006566674546475E
:10575C0000303132333435363738394142434445E1
:10576C004600303132333435363738396162636450
:04577C00656600005E
:0857800090AAFF7F0100000068
:04578800C50100084F
:04578C00A10100086F
:10579000010000001000000009024300020100C0E7
:1057A0003209040000010202010005240010010575
:1057B00024010001042402020524060001070582D9
:1057C0000308001009040100020A00000007050197
:1057D000024000000705810240000000090243006A
:1057E000020100C032090400000102020100052488
:1057F0000010010524010001042402020524060012
:10580000010705820308001009040100020A0000D4
:1058100000070501020002000705810200020000E6
:1058200009074300020104C032090400000102021A
:1058300001000524001001052401000104240202D6
:105840000524060001070582030800100904010071
:10585000020A00000007050102400000070581025E
:10586000400000000A0600020000004001000000A5
:105870006F2D00082D2D0008532C0008000000009B
:105880007D2B0008032C0008D52B00080000000029
:105890000000000000000000B12B0008A52B00084C
:1058A000BD2B0008C92B0008E0560008CC560008A4
:1058B0000024F40065440008114400081544000861
:1058C00019440008120100020202004083044057FC
:1058D0000002010203010000040309041A0300008E
:1058E00000000000000000000000000000000000B8
:1058F000000000000000000049470008554700086C
:1059000009480008E5470008D14700082548000875
:105910004948000888010020000000000000000045
:105920000000000000000000000000000000000077
:105930000000000000000000000000000000000067
:105940000000000000000000000000000000000057
:105950000000000000000000000000000000000047
:105960000000000000000000000000000000000037
:0859700000000000000000002F
:040000050800486D3A
:00000001FF
